:020000040800F2
:1000000050050020E53000085D3000085F30000832
:10001000613000086330000865300008000000000F
:100020000000000000000000000000006730000831
:1000300069300008000000006B3000086D300008D7
:10004000093100080D310008113100081531000890
:10005000193100081D310008213100082531000840
:10006000293100082D3100083131000835310008F0
:10007000393100083D3100084131000845310008A0
:10008000493100084D310008513100085531000850
:10009000593100085D310008613100086531000800
:1000A000693100086D3100087131000875310008B0
:1000B000793100087D310008813100088531000860
:1000C000893100088D310008913100089531000810
:1000D000993100089D310008A1310008A5310008C0
:1000E000A9310008AD310008B1310008B531000870
:1000F000B9310008BD310008C1310008C531000820
:10010000C9310008CD310008D1310008D5310008CF
:10011000D9310008DD310008E1310008E53100087F
:10012000E9310008ED310008F1310008F53100082F
:100130002DE9F04F80460FF23060A5B015461E46FF
:10014000D0E90023CDE91223002004910D900DF198
:10015000500A6FF0004900E065190020ADF8020078
:1001600012AB4FF0FF3229460DF1020001F093F877
:100170000446012C04DA2878441EA441E443E40F29
:10018000BDF8020025280CBFA4F1010BA346BBF16A
:10019000010F0EDB2F4617F8011B0498C0470028FB
:1001A000049000F0F3800D98401CBBF1010B0D9002
:1001B000F1D1BDF80200252807D100200790089052
:1001C00009900A900B900C9005E00028C4D10D987E
:1001D000D2E240F0010015F8011F2029F9D02329AF
:1001E0000DD02B2904D02D2906D030290AD00CE0BF
:1001F00040F0020080B2EEE740F00400FAE740F081
:100200000800F7E740F01000F4E72A290ED1316822
:10021000316051F8042B3160002A0F9204D551420D
:1002200040F004000F9180B26D1C11E000210F918D
:1002300009E00F99494505D001EB810302EB430129
:1002400030390F916D1C2A78A2F130010A29F0D3C0
:1002500029782E2903D04FF0FF310E911DE015F8BB
:10026000011F2A2907D1316831606D1C51F8042B18
:1002700031600E9211E000210E9109E00E9949457E
:1002800005D001EB810302EB430130390E916D1C67
:100290002A78A2F130010A29F0D3ADF840000FF21C
:1002A000D040297801F008F808B115F8010B8DF855
:1002B00042009DF84200682802BF29786829622020
:1002C00005D06C2804BF28786C2803D171208DF8E4
:1002D00042006D1C14A8069015F8014BB4F12500DE
:1002E0002AD01C3800F0D480001F022840F2D080B1
:1002F000133800F0F580093800F0CA80801E00F045
:100300005C81401E00F03581401E022840F2C08012
:10031000001F00F02E81401F00F08B80401E00F077
:10032000DF80401E35D0C01E0BD0801E00F0D8806C
:10033000C01E00F0D58063E125208DF8500001201B
:1003400067E19DF842006C283068306014D050F8A6
:10035000047B306005970E9C002C04D5384600F0D5
:10036000B7FF044606E022460021384600F0CCFFE5
:1003700000B1C41B08944DE150F8042B306002A971
:10038000404600F033FA002840F144814FF0FF303E
:10039000F2E1316831603C2451F8040B31600021F6
:1003A000CDE9020114A80590DDE90201069F11B90B
:1003B00008B90E9AB2B10206120FA0EB0212303247
:1003C000D2B2631E3A2AA8BF27320009DA5540EAA2
:1003D0000170090908BF00281C4603D0059AE319DB
:1003E0009A42E8D3E0190590C4F13C010E980891B7
:1003F000814209DA401A0A904FF6EF71BDF84000C9
:100400000840ADF8400005E1002840F103819DF867
:10041000400000F01400102840F0FC800F98079A6C
:10042000801A0A9A801A441A012CC0F2F3800A94A6
:10043000F0E09DF8420062281AD0682806D06A28A9
:100440000CD06C281CD0712808D019E030683060BE
:1004500050F8041B30600D980880DBE03068306095
:1004600050F8042B30600D98C117C2E90001D1E0AB
:100470003068306050F8041B30600D980870C9E097
:100480003068306050F8041B30600D980860C1E09F
:100490003068C01D20F007023260D2E90001083246
:1004A0003260CDE90201002902D507982D210AE02A
:1004B000BDF84000810702D507982B2103E0C00753
:1004C00005D50798202100F80A10401C079014A8B1
:1004D000079908180590214602A800F091FB99E0C1
:1004E0009DF842006C280DD0712818BF6A2809D1E8
:1004F0003068C01D20F007023260D2E900010832E6
:10050000326005E03168316051F8040B3160002140
:10051000CDE902019DF84200682803D1DDE902011E
:1005200080B20BE0622803D1DDE90201C0B205E030
:10053000742818BF7A2804D1DDE902010021CDE931
:1005400002019DF8400000072ED5DDE902010029D7
:1005500008BF002828D044F02000782824D107982C
:10056000302100F80A10401C411C079100F80A4095
:100570001AE09DF84200314600F001F9CDE9020190
:10058000002902DA07982D210AE0BDF84000810712
:1005900002D507982B2103E0C00705D50798202135
:1005A00000F80A10401C079014A807990818059035
:1005B000214602A800F0A0FA2CE09DF842006C2829
:1005C00009D0012007903068306050F8041B30607B
:1005D0008DF850101EE03068306001AA50F8041BFE
:1005E0003060ADF804100020ADF8060002A94FF00D
:1005F000FF300E90404600F0F9F800280AD5C5E615
:1006000025208DF85000012007901CB18AF8014088
:10061000022007900F980799401A0A99401A0899E2
:10062000401A0B99401A0999401A0C99441A9DF8DE
:100630004000400710D42020012C8DF800000BDB77
:10064000274601236A4602A9404600F000FE002822
:100650007FF49CAE7F1EF4D1DDF81CB0BBF1000F1F
:1006600014AF0DD017F8011B0498C0470028049060
:100670003FF48CAE0D98401CBBF1010B0D90F1D1F5
:1006800030208DF800000A9F012F0ADB01236A4603
:1006900002A9404600F0DBFD00287FF477AE7F1E04
:1006A000F4D1DDF820B0059FBBF1000F0DD017F895
:1006B000011B0498C047002804903FF467AE0D98D2
:1006C000401CBBF1010B0D90F1D130208DF80000E2
:1006D0000B9F012F0ADB01236A4602A9404600F066
:1006E000B6FD00287FF452AE7F1EF4D1059808991C
:1006F000DDF824B00F18BBF1000F0DD017F8011B67
:100700000498C047002804903FF440AE0D98401C68
:10071000BBF1010B0D90F1D130208DF800000C9F42
:10072000012F0ADB01236A4602A9404600F08FFD33
:1007300000287FF42BAE7F1EF4D19DF840004007C7
:100740007FF50BAD2020012C8DF80000FFF605ADE4
:1007500001236A4602A9404600F079FD00287FF493
:1007600015AE641EF4D1F8E40000000000000000A3
:10077000686A6C747A4C000025B0BDE8F08F62287E
:1007800026D068281DD06A2808D06C2827D0712868
:1007900004D0742823D07A280CD020E00868C01D2B
:1007A00020F007000860D0E90023083008601946EF
:1007B000104670470A680A6052F8040B0A6000216C
:1007C00070470A680A6052F8040B0A6000B20BE036
:1007D0000A680A6052F8040B0A6040B204E00A6832
:1007E0000A6052F8040B0A60C11770472DE9F44FF4
:1007F0000D4694B0D5F830A0BAF1000F804648BF3E
:100800006FF0004A00F0ACFD696B401801900FF6E4
:100810006C20D0E90023CDE9022395F83800400789
:1008200002D40198412805D240200DF11009019011
:10083000002609E000F09AFD5FEA0009F8D14FF0C8
:10084000FF3056E1AAEB040ABAF1010FC0F2CE80E4
:100850001498018802AA0DF1010000F0DFFD0028C4
:10086000044600F1DE801498008810B9641E00F17F
:10087000D880A245C0F2BA806869019922189142D5
:1008800080F0A2806E634042296A401AA969401A2A
:10089000696A401AE969401AA96A461A95F8380047
:1008A000400710D42020012E8DF800000BDB3746C6
:1008B00001236A462946404600F0C9FC002840F062
:1008C000B0807F1EF4D1D5F814B0BBF1000F4F46B5
:1008D0000DD017F8011BA868C0470028A86000F0D9
:1008E000A080E86A401CBBF1010BE862F1D1302026
:1008F0008DF800002F6A012F0ADB01236A46294682
:10090000404600F0A4FC002840F08B807F1EF4D10C
:10091000D5F818B0EF68BBF1000F0CD017F8011B29
:10092000A868C0470028A8607BD0E86A401CBBF1DB
:10093000010BE862F2D130208DF800006F6A012FC0
:1009400009DB01236A462946404600F080FC002866
:1009500067D17F1EF5D1E868A969D5F81CB00F18DA
:10096000BBF1000F0CD017F8011BA868C047002886
:10097000A86056D0E86A401CBBF1010BE862F2D1D6
:1009800030208DF80000AF6A012F09DB01236A4691
:100990002946404600F05BFC002842D17F1EF5D17D
:1009A00095F8380040070DD52020012E8DF8000065
:1009B00008DB01236A462946404600F048FC80BB1C
:1009C000761EF6D100266E61224668690DF101019E
:1009D000484400F031FD6869201868611498801C53
:1009E0001490801E008800287FF42CAF686B696922
:1009F000401A296A401AA969401A696A401AE969C5
:100A0000401AA96AA0EB010A95F83800400710D4F3
:100A1000BAF1010F0DDB5446A8682021C047A86039
:100A200010B94FF0FF365DE0E86A401C641EE862D2
:100A3000F2D16B694A462946404600F008FC00287E
:100A4000EFD12C6A012C0ADBA8683021C0470028AE
:100A5000A860E6D0E86A401C641EE862F4D1AB6985
:100A6000EA682946404600F0F2FB0028D9D16C6ABA
:100A7000012C0ADBA8683021C0470028A860D0D02C
:100A8000E86A401C641EE862F4D1E868A969EB6971
:100A90000A182946404600F0DAFB0028C1D1AC6AAA
:100AA000012C0ADBA8683021C0470028A860B8D014
:100AB000E86A401C641EE862F4D195F838004007EB
:100AC0000ED5BAF1010F0BDBA8682021C047002822
:100AD000A860A6D0E86A401CBAF1010AE862F3D126
:100AE0006E616E6304A881451CBF484600F0E0FCBF
:100AF000304615B0BDE8F08F2DE9FA4E05460A469E
:100B00002F696F2A08BF082405D041F020007828FB
:100B100014BF0A2410243C26D5E90001642A18BF1A
:100B2000692A81468A4605D1002903DAD9F10009EC
:100B30006AEB4A0ABAF1000F08BFB9F1000F0CD1F5
:100B4000286B50B9082C36D195F83800000732D5FB
:100B500030203B2687F83B002DE0E31748465146FE
:100B6000224600F0E5FCA4FB0023A9EB0202303290
:100B7000D2B2A6F1010B3A2A5E4603DB9DF80030A3
:100B8000513B9A180BF8072081465FEA010A08BF1B
:100B9000B9F1000F03D0E868F1198842DDD3082CC1
:100BA00009D195F83800000705D5F05D302802D04E
:100BB000761E3020F055C6F13C00A861F119E960BD
:100BC000296B884208DA081A28624FF6EF71288FDD
:100BD00008402887BDE8F38E00290ED595F8381017
:100BE00001F01401102908D1696B6A69891A2A6A0F
:100BF000891A0E1A012EA8BF2E62BDE8F38E0000DE
:100C00002DE9F24F04468EB0D4E90001CDE902018E
:100C100004AF9DF8380040F0200BBBF1610F0AD003
:100C2000206B002848BF062004D408BFBBF1670F23
:100C300001D1012020636168C1F30A5040F2FF72C4
:100C400090421CD1080304BF2068002809D103206A
:100C5000A0619DF8380061381A2836D30FF2306150
:100C600008E00320A0619DF8380061381A2829D3D4
:100C70000FF21461E068032200F0DEFBBEE1012800
:100C800016DA204600F0CBFC012811DB00250020FD
:100C9000BBF1610F20D1E168302201F8012B4A1C21
:100CA000E2609DF83820612A0CBF782258220FE0BC
:100CB000626840F2FE3161F31E52451A62604FF0E5
:100CC000FF30E5E70FF2BC51D4E70FF2C051D1E796
:100CD0000A706169891C616110B90026002584E1F0
:100CE000BBF1610F40F09880206B00284CBF21269B
:100CF000461CD4E900ABDDE902010022002300F02C
:100D0000AFFC36B23ABF8BF00040CDE902A0CDE98E
:100D100002AB06F101082D1FB8F1010F8DF810206C
:100D20000DF1110736DBDDE902010022002300F09E
:100D3000AFFC2FD21C2102A800F0C2FCDDE90201A9
:100D400000F044FDA8F10708B8F1010F814609DB66
:100D500000F068FD02460B46DDE9020100F07AFD75
:100D6000CDE90201F81D072105E009F00F0200F8A6
:100D7000012D4FEA2919B9F1010F01DB491EF4D504
:100D8000491E5CBF002200F8012DF9D5C71DB8F13E
:100D9000010FC8DA0DF11100391AB142B8BF0E4681
:100DA00036B230000DF111072FD4884206DA04A9BB
:100DB000411849780829A8BF0F2100DA002104AAA8
:100DC000821800E0761E12F80139401E8B42F9D0DD
:100DD0000F2904D104A941184A78521C4A700028EE
:100DE00002D504AF761C2D1D36B2701E0DD4C1196C
:100DF0000A783032D2B23A2A03DB9DF838303A3BD7
:100E00009A18401E01F80129F2D5206B002840F104
:100E1000EC80701E2063E8E0DDE90201002200237F
:100E200000F01EFC3CBF81F00041CDE902012DB273
:100E300047F2975068434B49DFF82C9190FBF1F54E
:100E40002DB2C5F1070ABAF1010F90461CDBDDE9AE
:100E500002675FEACA7007D542464B4630463946BC
:100E600000F0B8FD06460F464046494642464B460E
:100E70004FEA6A0A00F0AEFDBAF1000F80468946DB
:100E8000E7D1CDE9026724E0CAF1000A0026374F16
:100E900014E05FEACA7007D542464B4630463946F1
:100EA00000F098FD06460F464046494642464B46EE
:100EB00000F090FD4FEA6A0A80468946BAF1000FB9
:100EC000E7D1DDE9020132463B4600F055FECDE9AF
:100ED0000201BBF1660F0CBF05F10A000620216B71
:100EE000DFF88C904618142EA8BF132630208DF8FA
:100EF00010000DF11107012E3CDBDDE9020100F0CD
:100F00007BFC07F1080104220A23B0FBF3F303EB97
:100F10008307A0EB4700303001F8010C0A20B3FB37
:100F2000F0F000EB8007A3EB47033033521E01F8CB
:100F3000023DE9D1083E012E01F10807DBDBDDE9C6
:100F4000020100F059FC00F077FC02460B46DDE997
:100F5000020100F07FFC00224B4600F03BFDCDE992
:100F60000201CAE7A0860100000024400000F03F13
:100F700084D797410DF11100381A0DF1110702E0E5
:100F8000401E6D1E7F1C39783029F9D0BBF1660FE9
:100F900002D12DB2691C04E0BBF1650F0CBF012129
:100FA0000021226B8E1836B2B042B8BF064636B268
:100FB00031001AD4814204DAC85D3528A8BF39202F
:100FC00000DA3020CA19521E00E0761E12F80139EC
:100FD000491E8342F9D0392802D1C85D401CC8554A
:100FE000002902D57F1E761C6D1C2DB29DF838108D
:100FF000009533B23A46204600F003F80FB0BDE842
:10100000F08F2DE9F04786B006468A4690461D4689
:1010100000F0FBFE012D406A376B90F8009002DA79
:1010200001250FF270284AF02000BDF938406628EB
:1010300008BF641C12D0672876D114F1040F79DB45
:10104000BC4277DA96F83800641C000702D4BD422F
:10105000B8BF2F4624B23F1B48BF002724B2F06818
:10106000B169012C21DA4A1C30230B54012F03DA19
:1010700096F83810090702D502F80090521CB261A8
:10108000E742B8BF7C4224B26142E7197162AF42C5
:10109000B8BF3D46B3692DB2F5612A4641461818DE
:1010A00000F0CAF9781BB062BAE00818A54216DA57
:1010B0002A46414600F0C0F9B1696918601B012F4A
:1010C000B161706203DA96F83800000705D5F06860
:1010D00001F80090F069401CF061B762A0E0224680
:1010E000414600F0A9F9B06920182D1B012F03DA41
:1010F00096F83810090703D5F16800F80190401CF4
:101100002DB2B061AF42B8BF3D46F068B3692DB2B1
:101110002A4604EB0801181800F08EF9B069281867
:10112000B061781B70627BE0BAF1610F14D14FF0AF
:10113000700A16E0BD4204DA96F83810090758BF65
:101140002F467F1E48BF0027BAF1670F14BF4FF02C
:10115000450A4FF0650A04E0BAF1410F08BF4FF0AD
:10116000500AB169F0684A1CB261012F18F8013BBE
:101170000B5403DA96F83810090715D5531CB361E0
:1011800002F80090012F0FDB6D1E2DB2AF42B8BFE9
:101190003D462DB22A464146181800F04DF9B06977
:1011A0002818B061781B7062F068B16909182000D6
:1011B00081F800A004D42B20487001F1020804E05B
:1011C0002D224A7001F102086442002502AF08E0B6
:1011D0000A22684600F032FE019807F8010B6D1CE8
:1011E000009C21B20129F3DA022D06DA4AF0200030
:1011F000652804BF302008F8010B4DB9302008F8ED
:10120000010B07E06D1E02A8285C303008F8010BC6
:10121000012DF7DAF068B1690818A8EB0000F06159
:1012200096F8380000F0140010280DD17069B169EB
:101230000818716A0818F1690818B16A0818716B02
:101240008842BCBF081A306206B0BDE8F087F8B526
:1012500004460D4616461F46002077B116F8011BBE
:10126000A868A047A86030B1E86A401CE862002086
:101270007F1EF3D1F2BD4FF0FF30F2BD0000000041
:10128000000000006E616E004E414E00696E660007
:10129000494E46003000F8B504460D4616461F4636
:1012A00000F0D4FD3B4632462946204601B0BDE859
:1012B000F04000F0E2BD00000278C9B28A421AB1E3
:1012C0001CBF10F8012FF9E718BF0020704700007D
:1012D00000F10103810704D010F8011B89B18107D7
:1012E000FAD10268B2F10131914311F0803F04BF9D
:1012F00050F8042FF6E710F8011B11B110F8011B8C
:10130000FBE7C01A70470000C9B2830706D0521E1F
:1013100022D310F8013B9942F7D11FE0083A13D3CA
:1013200002F1040241EA012141EA014150F8043B83
:10133000121F21BF4B40A3F1013C2CEA030C1CF00F
:10134000803FF3D0C9B2001F083210F8013B521E93
:1013500028BF91EA030FF8D818BF0120401E70473C
:1013600080B500F073FD012002BD000070B5054698
:1013700005F10F00C408C046C046E400A54232D2C1
:10138000082C04D2082402E0083000F091F822482A
:10139000026811000CD1011D0A6802B31368A34250
:1013A00038BF111DF8D310E01D68A5420DD2191DDC
:1013B0000B68002BF8D11268011D00E0191D0B68A5
:1013C00093420CD01D68A542F8D361B10D682A681C
:1013D000A2F10803A3420AD26A680A600FE000F093
:1013E0006FFD0028D0D1C046C046002070BD6319F3
:1013F0000B60121B6E685E600B681A602C600968D7
:1014000000291DBF4A68002A091D00210160C0464D
:10141000C04605F1080070BD940A002070B504466E
:101420000D46164600F012FD324629462046BDE81C
:10143000704000F015BD000062B38B0708D0521E4B
:1014400011F8013B00F8013B00F024808B07F6D136
:10145000830740F0208000BF103A07D330B4B1E8D2
:101460003810103AA0E83810F9D230BC530724BF26
:10147000B1E80810A0E8081044BF51F8043B40F858
:10148000043BD20724BF31F8022B20F8022B44BFC3
:101490000B7803707047083A07D3B1E80810083A90
:1014A00040F8043B40F804CBF7D25307E4E70000D0
:1014B00000B9704738B5A0F108042068082833D374
:1014C00010F0070F30D1C046C0461848416809B136
:1014D0008C4203D26160446017E019464B680BB13F
:1014E000A342FAD30B685D18AC421BD3A54204D1CA
:1014F0002268D2180A600C4607E04A681AB12368CD
:101500001B199A420ED362604C60616851B1226827
:1015100013198B4206D100230360086880182060ED
:1015200048686060C046C04631BD0000940A002093
:101530001B4213D1094236D12AB18446B0FBF2F0E6
:1015400002FB10C2704700F0D1BCFCD30022002384
:1015500070470B000200002100207047904271EBA1
:10156000030CF6D370B5B1FA81F4B3FA83F52C1BF2
:10157000A340C4F1200532FA05F63343A2405FF0E0
:101580000046E64002E05B085FEA3202841A71EB33
:10159000030524BF204629467641F4D302000B0000
:1015A0003000002170BD012ACFD970B5140C20D0B5
:1015B000B1FA81F4B2FA82F5C4F120046419B4F1ED
:1015C0002006D6D3B2405FF00044F440002502E08C
:1015D00052085FEA3303C61A71EB020E24BF30468D
:1015E000714664416D41F3D302000B0020002900D5
:1015F00070BD0C46B1FBF2F102FB11452D0445EA2A
:101600001045B5FBF2F402FB145580B240EA0545E3
:10161000B5FBF2F002FB105240EA044070BD30B45A
:10162000436803F0004201211B031B0B436004BF0E
:101630000368002B08D10DE00368DD0F45EA440480
:1016400044605B000360491E4468E302F4D5230351
:101650001B0B436043681A434260084630BC704726
:101660004FF4001C1CEB410F94BF1CEB430F09E02F
:1016700041EA030C50EA4C0C52EA0C0C03D299429A
:1016800008BF9042704714BF8B42824270470000EF
:101690004FF4001C1CEB410F94BF1CEB430F09E0FF
:1016A00041EA030C50EA4C0C52EA0C0C03D28B4278
:1016B00008BF8242704714BF9942904270470000B1
:1016C00070B504460D466068C0F30A5040F2FF71E1
:1016D000884207D16068000304BF2068002817D043
:1016E000022070BD20B92046FFF799FF012866DA75
:1016F000012D0FDB40F2FF71091A8D420AD3606899
:10170000002847BF00202F4900202F49C4E90001CD
:10171000012070BD4142A942616806DA6FF31E5193
:10172000401941EA0050606040E0401E636845197E
:10173000012205F1350062F31F53352801F0004105
:10174000636003D361600020206070BD002015F14C
:101750001F0F04DA206823600022203562606A428D
:1017600012D0401E25688041C2F12003C0439D4035
:1017700045EAD07025686668D54006FA03F32B4326
:1017800023606368D340636062680A43B0F1004F2E
:10179000626003D80DD12078C0070AD52068401CAC
:1017A0002060206828B96068401C60604FF0FF30FE
:1017B00070BD6068884204BF20680028F6D1002010
:1017C00070BD00BF0000F0FF0000F07FF446400D48
:1017D00040EAC120490006D200F014F8004248BF98
:1017E0006FF00040604700F00DF84FF00041884274
:1017F0008CBF084640426047400D40EAC120490086
:1018000080F00D8040F00040490DA1F58061491C39
:1018100005D4D1F11F0154BFC840C01770474FF025
:1018200000007047010040F10980F446404200F09A
:1018300005F851F000416047010000BF09D0B0FA3F
:1018400080F18840C91CC1F58461090501EBD021F4
:1018500040057047F0B44FF0004591EA030F44BFD4
:101860006B4000F04FBB00BF841A71EB030604D23B
:101870006E40001BB141121973414FF4001C1CEB68
:10188000410F34BF7CEB430684E00C0DA4EB1356F0
:10189000362E7DDC012E43DC45EAC32343EA525356
:1018A00012BFD20292025B08240545EAC12141EA37
:1018B0005051D2EBC020994125D407D1B0FA80F61F
:1018C00010FA06F164D00020203608E0B1FA81F663
:1018D000B140C6F1200220FA02F21143B0404FEAB3
:1018E000F474B4EB465434F001064FEA74040AD899
:1018F000D6F50016760D04F00044F04061FA06F2C9
:101900005040F1404840C00A40EA415021F00041B7
:1019100028BF5FEA500550F1000044EBD12137E0C9
:1019200045EAC323DB0A45EAC121C90AB6F120050D
:101930000EDD42EA0242120CC5F1200603FA06F659
:10194000EB4042EA06056D42984161F100010DE06D
:1019500062FA06F5F240554063FA06FC82EA0C0290
:10196000F3405A406D42904161EB030111F4801F36
:1019700005D1641E620502D06D004041494121F449
:101980008011430875F1004350F1000041EB045110
:10199000F0BC70471CEB410F15D223F0004352EA14
:1019A00043060BD04FEA4C0CBCEB410F04D80C0D96
:1019B000661E342EB7DDEBE7801A994150EA4106E6
:1019C00008BF0021E4E708BF1CEB430F28BF6FF0FE
:1019D0000001DDE7B0B581EA030C0CF0004C40F2E9
:1019E000FF7515EA11541DBF15EA1357AC42AF42FB
:1019F00039E0E41923EA455343F48013C90241F066
:101A0000004141EA505EC7021100A7FB0202002814
:101A10004FF00000EEFB01204FF00001E3FB072137
:101A200018BF42F00102401800214941E3FB0E01BA
:101A3000A4F580640F0302D252004041494154F1A1
:101A400001046CDD470872F1004250F1000051EBD7
:101A50000451A1F580115CBF41EA0C01B0BD4CEA14
:101A600005510020B0BD05EA1357AC4214BFAF4288
:101A700041E050EA410E1CBF52EA430E02E06146CB
:101A80000020B0BD24423C441BD15FEA070EF6D0D3
:101A9000090302BF01460020AEF1140EB1FA81F72E
:101AA000AEEB070401FA07FE0C37C7F1200100FA7C
:101AB00007F7C8404EEA000E23EA455343F480136B
:101AC000A2E733F00043B3FA83F704BFB2FA82FE11
:101AD00077440B3FE41BB7F1200E2FBF02FA0EF341
:101AE000BB40C7F1200E22FA0EFE38BF43EA0E03B8
:101AF000BA40641C82E750EA410E14BF52EA430E1A
:101B00006FF000014FF4001717EB430F8ABF19461F
:101B100017EB410FB5E74CEA05510020B0BDD4F1F9
:101B20000104B4F120070FDAC4F12007520828BFDE
:101B300042F0010210FA07F501FA07F7E1BF2A4364
:101B4000E0403843E1400FE0352C98DCC7F1200439
:101B500052EA400220FA07F218BF42F0010231FABD
:101B600007F0A1400A43002172F1004250F1000049
:101B700051EB0C01B0BD00002DE9F04140F2FF75C2
:101B800081EA030C0CF0004C15EA11541DBF15EA54
:101B90001357AC42AF42E9E0BC41C1F31301C3F3B8
:101BA0001303801A994143F4801304D2641E400049
:101BB000494180185941C90241EA5051B1FBF3F63D
:101BC00003FB1611A2FB0675D7EBC020A94102D278
:101BD000761E80185941C90241EA5051B1FBF3FE0B
:101BE00003FB1E11A2FB0E75D7EBC020A94103D247
:101BF000AEF1010E80185941890241EA90517605F3
:101C000046EA8E2EB1FBF3F603FB1611A2FB067516
:101C1000D7EB8020A94102D2761E80185941C90213
:101C200041EA50514EEA060EB1FBF3F603FB1611E2
:101C3000A2FB0675D7EBC020A94102D2761E801800
:101C40005941C90241EA5051B1FBF3F703FB1711A7
:101C5000A2FB0735D3EBC020A94167F100070CBFF9
:101C6000004247F0010766F3D5274FEA1E31B80856
:101C700014F5806414DDBD0775F1004250EB0E5081
:101C800051EB045111F5801F5CBF41EA0C01BDE826
:101C9000F0814CF07F6141F0E0410020BDE8F0812F
:101CA000BD076D0840EA0E5041F48011D4F10104E3
:101CB000B4F120060ADAC4F120060200E04001FA7D
:101CC00006F3E1401843B24015430EE0342C14DC17
:101CD000C6F1200445EA40056D0820FA06F21543D6
:101CE00021FA06F0A1400D43002175F1004250F1A8
:101CF000000051EB0C01BDE8F08100205FEA0C010F
:101D0000BDE8F081CFB992185B41B3FA83F704BF05
:101D1000B2FA82F6BF190B3FB7F120062FBF02FAC5
:101D200006F3BB40C7F1200622FA06F638BF33435C
:101D3000BA401CB1E419641E2FE77F4231F0004124
:101D4000B1FA81F404BFB0FA80F6A4190B3CB4F1E7
:101D500020062FBF00FA06F1A140C4F1200620FAA8
:101D600006F638BF3143A0403C1B16E7AC421ABF11
:101D700005EA1357AF4214E050EA41061CBF52EA8D
:101D80004306BFE750EA4107304661461CBF41EABF
:101D90000551BDE8F08152EA430C08BFC143BDE8DC
:101DA000F08100204FF4001616EB410F98BF16EBA0
:101DB000430F08BF16EB410F24BFC14305E016EBEC
:101DC000430F0CBF61464CEA0551BDE8F0810000AD
:101DD00080B5134800F000F90FF24C020FF24401F5
:101DE0000160426241600FF24402826381600FF23F
:101DF0004402C1600161416181618162C16201632C
:101E00004163C2630164416401BD10B5044800F040
:101E1000E3F80446206808B9FFF7DAFF204610BD52
:101E200050000020000000002E00000066616C736E
:101E300065000000747275650000000091FBF2F30C
:101E400003FB1211C0E900317047000080B5DFF8D4
:101E50000C0000F0C1F8806902BD0000E000002025
:101E600030B430B90FF24800D0E90045C2E900456E
:101E70001BE00170012030BC704730B431B90FF263
:101E80003800D0E90045C3E900450EE01AB930BC7E
:101E90006FF00100704708B10A7802800978481E87
:101EA000804130BCC043C00F7047002030BC704739
:101EB0000000000000000000000000000000000022
:101EC0000749086808B1002070470648C008C000EC
:101ED00008600549C908C900091A0160704700BFB8
:101EE0009C0A002057050020500700207047000082
:101EF000F0B44FF0004591EA030C44BF6B40FFF78C
:101F0000B3BC00BF841A71EB030603D2001BB141BE
:101F1000121973414FF4001C1CEB410F34BF7CEBD2
:101F2000430443E00C0DA4EB1356352E50DC45EA78
:101F3000C323DB0A45EAC121C912B6F120050DDD34
:101F400063FA05F6EB4086EA0305124218BF45F036
:101F50000105C01851F100010CD213E062FA06F538
:101F6000F2405540F3415A40B340F3405A40801884
:101F7000594107D349085FEA30005FEA350528BFB9
:101F800045F0010501F58011420875F1004250F15C
:101F9000000041EB0451F0BC4FF4001C1CEB410F5E
:101FA00038BF70470020090D090570471CEB410F31
:101FB00010D252EA43060BD0BCEB410F05D80C0DF2
:101FC000AB43661E342EB5DD02E0AB4380185941A9
:101FD000F0BC7047F0BC7047704700002DE9F84333
:101FE0000446DFF868542078C00747D5686800F0D9
:101FF0000C00042807D0686800F00C0008280AD1FB
:102000006868C00307D52868800337D56068002852
:1020100034D1012049E16068B0F5803F09D008B9AA
:1020200028680AE0B0F5A02F286806D140F4802087
:102030002860286840F4803005E020F48030286073
:10204000286820F480202860606858B100F050FAB9
:1020500007462868800311D400F04AFAC01B65289F
:10206000F7D31FE100F044FA07462868800305D53E
:1020700000F03EFAC01B6528F7D313E12078DFF8A3
:10208000D863800718D5686810F00C0F07D068680F
:1020900000F00C00082825D16868C00322D4286805
:1020A000800702D520690128B3D12868616920F032
:1020B000F80040EAC1002860207800073ED5A169F9
:1020C000DFF89803002965D00121016000F010FAC3
:1020D0000746686A800722D400F00AFAC01B03286A
:1020E000F7D3DFE0206968B10120306000F000FA2A
:1020F000074628688007D8D400F0FAF9C01B0328E7
:10210000F7D3CFE0306000F0F3F907462868800786
:10211000D2D500F0EDF9C01B0328F7D3C2E0DFF8F9
:1021200030030068C0084FF47A71B0FBF1F0009002
:1021300000BF0098411E00280091F9D12078400787
:102140006FD5E869C0004FF000080AD4E86940F094
:102150008050E8614FF00108E86900F0805000907D
:102160000098DFF8FC92D9F80000C0051FD4D9F818
:10217000000040F48070C9F8000000F0B9F907468B
:10218000D9F80000C00512D400F0B2F9C01B6528D0
:10219000F6D387E0016000F0ABF90746686A800774
:1021A000CCD500F0A5F9C01B0328F7D37AE0E0688E
:1021B000012808D008B9286A09E00528286A06D14C
:1021C00040F004002862286A40F0010005E0400861
:1021D00040002862286A20F00400286241F2893910
:1021E000E06858B100F084F90746286A800711D4E6
:1021F00000F07EF9C01B4845F7D353E000F078F9B2
:102200000746286A800705D500F072F9C01B4845CB
:10221000F7D347E0B8F1000F03D0E86920F0805011
:10222000E861E06900283FD0696801F00C010829E5
:102230003FF4EFAE02282AD100F039F807462868AB
:10224000800105D500F054F9C01B0328F7D329E01D
:10225000206AB0F5803F05D16868A16820F400309D
:10226000084368606868216A20F474100843616A52
:1022700008436860012000F01BF8074628688001C9
:1022800012D400F035F9C01B0328F7D30AE000F0A0
:102290000EF807462868800106D500F029F9C01B12
:1022A0000328F7D3032000E00020BDE8F2830020DC
:1022B000306600F01DB92DE9F8436A4E04463068D7
:1022C000884600F00700404502D200F079F852D16C
:1022D00020785E4F800705D57868A16820F0F0006F
:1022E000084378602078C0073DD56068012802D196
:1022F0003968890303E00228396802D1890102D4D0
:1023000039E0890737D57968890840EA8100786023
:1023100041F2893900F0ECF80546606801280AD1DD
:10232000786800F00C0004281DD000F0E1F8401B94
:102330004845F5D315E002280AD1786800F00C0072
:10234000082810D000F0D4F8401B4845F5D308E029
:10235000786810F00C0F06D000F0CAF8401B484512
:10236000F6D303202AE0306800F00700804504D24D
:1023700000F026F801D0012020E02078400705D5A4
:102380007868E16820F4E06008437860207800070E
:1023900006D57868216920F4605040EAC100786071
:1023A00000F018F87A683049C2F30312515CC84053
:1023B00027490860002000F079F80020BDE8F2838A
:1023C0003068C00848EAC0003060306800F007009C
:1023D0004045704710B586B001A80FF29C0110224D
:1023E000FFF73AF80FF2A00020490088ADF800008E
:1023F0000A68184802F00C03082B10D101ABC2F395
:102400008344D203E35C08D509686A46C1F34041BE
:102410005843895CB0FBF1F001E01548584306B021
:1024200010BD0B48006870470948104A00681268E0
:102430001049C2F3022206E005480C4A00681268FF
:102440000C49C2F3C222515CC840704700100240E0
:102450000C00002000127A00000042428004424238
:1024600000700040002002408C2F00080410024041
:1024700000093D00003100080203040506070809B1
:102480000A0B0C0D0E0F10100102000080B51A4847
:10249000016841F010010160032000F040F80020C5
:1024A00000F004F800F094F8002002BD38B5134D98
:1024B000297804464FF47A70B0FBF1F010490968AE
:1024C000B1FBF0F000F055F850B9102C08D2002202
:1024D00021464FF0FF3000F02FF8AC60002032BDF5
:1024E000012032BD054841680278511841607047AB
:1024F00002484068704700000020024000000020B1
:102500000C0000200901002806D5294A00F00F0020
:10251000801800F8041C7047264A815470472649E9
:102520000A684FF6FF031A4000F0070042EA002055
:10253000224A10430860704738B51F4B1B68C3F32D
:102540000223C3F10704052C28BF04241D1D072DF9
:1025500034BF0023DB1E012505FA04F4641E21406C
:10256000994005FA03F35B1E1A401143BDE834405D
:10257000C8E710B5401EB0F1807F01D3012010BD27
:102580000F4C60600F214FF0FF30FFF7BBFF0020C2
:10259000A06007202060002010BD094904280868B9
:1025A0000CBF40F0040020F00400086070470000F9
:1025B00018ED00E000E400E00CED00E00000FA059A
:1025C00010E000E080B500F001F801BD70470000A8
:1025D00080B54248016841F001010160016801F0E5
:1025E000010100910099416841F0805141604068CB
:1025F00000F08050009000980320FFF790FF002229
:1026000000216FF00B00FFF797FF002200216FF011
:102610000A00FFF791FF002200216FF00900FFF789
:102620008BFF002200216FF00400FFF785FF0022DE
:1026300000216FF00300FFF77FFF002200216FF001
:102640000100FFF779FF002200214FF0FF30FFF774
:1026500073FF2348016821F0E06141F0806101606F
:1026600001BD10B586B000681E4A1F4C1B49904240
:1026700010D1086840F480400860086800F4804089
:10268000009001A900984FF4007000F01EF84FF47C
:10269000806010E0154A904215D1486840F400303F
:1026A0004860486800F40030009001A900980420B8
:1026B00000F00BF80820019001A90020029003907F
:1026C000204600F015F806B010BD019002200290DF
:1026D00003200490204600F00BB8000018100240C0
:1026E000040001400038014000080140004400405F
:1026F0002DE9F8474FF0000E00225F4BDFF87C8198
:10270000DFF87C914FF00F0A012707FA02F60F68F5
:102710003740B74240F0AA804C685CB3012C1AD015
:10272000022C1FD0032C31D0112C17D0122C1DD00D
:10273000544DAC421CBF544DAC421BD0534DAC4227
:102740001CBF534DAC4215D0524DAC421CBF524D34
:10275000AC420FD01CE0D1F80CE019E0CC6804F1D9
:10276000040E15E0CC6804F1080E11E0CC6804F109
:102770000C0E0DE08C6814B94FF0040E08E0012C2B
:102780004FF0080E14BF4661066101E04FF0000EE5
:10279000FF2F02D88446940004E0A2F1080400F15F
:1027A000040CA400DCF800500AFA04F6B5430EFA53
:1027B00004F42C43CCF800404C68E40056D5D9F81A
:1027C000004044F00104C9F800404FEA920CD9F8E7
:1027D000005005F001040094009C58F82C5002F0C1
:1027E0000304A4000AFA04F6B5432C4EB04208BF15
:1027F000002618D02A4EB04208BF012613D0294E19
:10280000B04208BF02260ED0274EB04208BF0326B2
:1028100009D0264EB04208BF042604D0244EB04250
:102820000CBF0526062606FA04F42C4348F82C4073
:10283000FD434C68E4031C684CBF3C432C401C60C7
:102840004C68A4035C684CBF3C432C405C604C6803
:10285000E4029C684CBF3C432C409C604C68A40242
:1028600047BFDC682743DF682F40DF60521C102A17
:10287000FFF44AAFBDE8F1870004014008000140C1
:10288000181002400000111000001210000021106A
:10289000000022100000311000003210000801403A
:1028A000000C0140001001400014014000180140DC
:1028B000001C014038B5050001D1012032BD05F1F1
:1028C0003804607818B920702846FFF7CAFE00F077
:1028D00011F800F007F821F02A01FFE7416100F04C
:1028E00013F832BD2868016921F49041016128681C
:1028F00041697047242060702868C16821F4005144
:10290000C160284600F0ECB82868C16841F4005165
:10291000C1600020606020206070A07000207047BF
:102920002DE9F843044604F138070D46787820284D
:102930001646984641D1002D14BF002E01203DD0EF
:102940003878012839D001203870002078602120A3
:102950007870FFF7CDFDA6848146E68403E0216808
:1029600015F8010B4860E08CC0B1E08C401EE0849B
:1029700000F079F80DD100F07DF8B8B92888216809
:10298000C005C00D48602069002814BF6D1CAD1C37
:10299000E9E700F06FF80028E1D007E0CDF800800B
:1029A0004B460022402100F067F808B1032005E003
:1029B000202078700020387000E00220BDE8F2830B
:1029C0002DE9F843044604F138070D46B87820286D
:1029D0001646984644D1002D14BF002E012040D049
:1029E000387801283CD001203870002078602220FF
:1029F000B870FFF77DFDA6858146E68503E0C0053A
:102A0000C00D25F8020BE08D28B3E08D401EE08557
:102A100000F029F80DD10022202100F02DF868B92E
:102A20002069002820684068E9D0C0B225F8010B71
:102A3000E9E70022202100F01FF808B1032010E090
:102A4000206900282068406802D105F8010BDAE708
:102A500000F07F00F9E72020B8700020387000E017
:102A60000220BDE8F2834B46A068CDF80080B0F5A7
:102A7000805F704700228021204606E0C160206808
:102A8000416949084900416170472DE9F041069EBE
:102A900004460D4690461F46206800682840A8421C
:102AA0000CBF01200020404517D116F1010FF3D0D3
:102AB00026B1FFF71DFDC01B8642EDD22068C1681C
:102AC00021F4D071FFF7DAFF04F1380020214170C2
:102AD000817000210170032000E00020BDE8F0813A
:102AE0002DE9F0470446642520680169E26821F475
:102AF0004051114301611926C168304A1140A26852
:102B000011432269114362691143C1604169A2699D
:102B100021F4407111434161294988420ED1FFF7E8
:102B20008BFC0746FFF788FC8046FFF785FC814653
:102B3000FFF782FC8246FFF77FFC0DE0FFF774FC95
:102B40000746FFF771FC8046FFF76EFC8146FFF7F2
:102B50006BFC8246FFF768FC06FB08F3616889009E
:102B6000B3FBF1F306FB07F206FB09F7B7FBF1F73E
:102B7000B7FBF5F705FB17331B013233B2FBF1F25C
:102B8000B3FBF5F3B2FBF5F203F0F00303EB021233
:102B9000704306FB0AF3B0FBF1F0B3FBF1F3B0FBBB
:102BA000F5F005FB103000013230B0FBF5F0216884
:102BB00000F00F0080188860BDE8F087F3E9FFFFA0
:102BC00000380140F8B504460025664E664F642380
:102BD000012239462046FFF7F3FE10B93878A85590
:102BE0006D1CB5F5167FF2D1F1BD2DE9F04200253F
:102BF000002600275B4C04E0385D522808BF3D46A4
:102C00007F1C00F0D5F88742F6D300E06D1C00F081
:102C1000CFF8854219D2285D2C2808BF761C022ED9
:102C2000F4D12819514EC078307205222819007944
:102C3000707228194079B07228198079F0722819B9
:102C400000F108013046FEF7F7FB484E307A717A02
:102C50000A2400F0B0F807468946B07AF17A42E0DB
:102C60002DE9F0420025002700263E4C04E0305DAF
:102C7000522808BF3546761C00F09AF88642F6D3F3
:102C80003B4E00E06D1C00F093F885421AD2285D9F
:102C90002C2808BF7F1C052FF4D1002041190919E9
:102CA000821949781172401C0328F7DB2819052284
:102CB000007930732819407970732819C11D304686
:102CC000FEF7BAFB727A307A0A246421624301FB70
:102CD0000020B17A081827490818FEF7A3FD074617
:102CE0008946307B717B00F066F80446307800F04E
:102CF00068F8214A214BFEF76DFE00F055F80446B6
:102D0000707800F05EF81E4A1E4BFEF763FE00F07E
:102D10004BF80446B07800F054F81B4A1B4BFEF702
:102D200059FE00F041F80446F07800F04AF8184ADD
:102D3000184BFEF74FFE00F037F80446307900F0EC
:102D400040F8154A154BFEF745FE00F02DF8144AE1
:102D5000144BFEF73FFE3A464B46BDE8F042FFF704
:102D6000C7B8000050070020860A0020880A00200B
:102D7000780A002030EBFFFF9A9999999999B93F09
:102D80007B14AE47E17A843FFCA9F1D24D62503FFB
:102D90002D431CEBE2361A3FF168E388B5F8E43EB8
:102DA0001EFE9AAC510F913F22462B46FFF7A0B86A
:102DB0002046FEF78DBA04FB0010A0F50470FEF764
:102DC00031BD0D463038FEF72DBD000010B582B084
:102DD00004468DF800004FF47A73012269462B48AF
:102DE000FFF79EFD204616BD7CB5FFF74FFB00F0B8
:102DF00057F82748016841F020010160016801F09F
:102E0000200100910099016841F00401016000680F
:102E1000204900F00400009000981C4801604FF425
:102E20009641416000218160C16001610C214161D6
:102E300000218161C161FFF73DFD00B1FEE7164E43
:102E4000164830604FF4165070600020B060F0609B
:102E500030610C2070610020B061F0613046FFF7F6
:102E600029FD00B1FEE73046FFF7ACFEFFF7BDFEDF
:102E700004460D46FFF7F4FECDE9000122462B463D
:102E80000FF2900000F04AF8EDE70000F80900208A
:102E90001810024000380140380A00200044004069
:102EA00000B58FB001200590002107914FF48030CC
:102EB000069001210D9009914FF4E01002210E902F
:102EC0000C9105A8FFF78AF800B1FEE70F200090EB
:102ED000022102200190002002904FF480600390B4
:102EE000002004906846FFF7E6F900B1FEE7FFF71F
:102EF00098FA4FF47A71B0FBF1F0FFF73AFB042037
:102F0000FFF74BFB002200214FF0FF30FFF714FBCF
:102F10000FB000BD256C66256C6600000EB400B5D0
:102F200082B003A9009102466B4601210348784410
:102F30000A30FDF7FDF806BC5DF810FB85010000C6
:102F40000E480F4A016841F00101016041681140DB
:102F500041600C4A016811400160016821F4802140
:102F60000160416821F4FE0141604FF41F0181605E
:102F70004FF00060044908607047000000100240F4
:102F80000000FFF8FFFFF6FE08ED00E00000000083
:102F900000000000010203040607080919E050F8C8
:102FA000041BCB0744BFA9F101035918121F0023CA
:102FB000042A41F8043BF9D25FEA827C0B4604D52F
:102FC0004FF0000CA1F800C09B1CD10744BF0021AA
:102FD000197050F8042B002AE1D1704730B5016810
:102FE00042688468091801EB5203D20748BF4C4479
:102FF0000C30994200D130BD11F9012B11F8015B61
:10300000002A04F8015B02D5521CF9D1F1E7521EE7
:10301000F4D5EEE710B5074979441831064C7C44E5
:10302000163404E00A68081D511888470146A14279
:10303000F8D110BD080000002400000061FFFFFF70
:1030400050030000500700200000000091FFFFFF28
:10305000A801000070000000000000207047FEE79B
:10306000FEE7FEE7FEE770477047704780B5FFF761
:1030700039FABDE80140FFF7A5BA000000F00BF8EF
:10308000002801D0FFF7C6FF0020C046C046FFF76A
:10309000ABFE00F002F80120704700F001B800001C
:1030A0000746384600F002F8FBE7000080B5C0464E
:1030B000C046024A11001820ABBEFBE72600020002
:1030C00038B504460D46284600F006F8A84218BF59
:1030D0000024204632BD00000149FFF777BE00BF43
:1030E000100000200148804701480047412F000898
:1030F000F5300008C046C046C046C046FFF7BEFFD8
:103100000000000001020304FFF7FEBFFFF7FEBF4F
:10311000FFF7FEBFFFF7FEBFFFF7FEBFFFF7FEBFE3
:10312000FFF7FEBFFFF7FEBFFFF7FEBFFFF7FEBFD3
:10313000FFF7FEBFFFF7FEBFFFF7FEBFFFF7FEBFC3
:10314000FFF7FEBFFFF7FEBFFFF7FEBFFFF7FEBFB3
:10315000FFF7FEBFFFF7FEBFFFF7FEBFFFF7FEBFA3
:10316000FFF7FEBFFFF7FEBFFFF7FEBFFFF7FEBF93
:10317000FFF7FEBFFFF7FEBFFFF7FEBFFFF7FEBF83
:10318000FFF7FEBFFFF7FEBFFFF7FEBFFFF7FEBF73
:10319000FFF7FEBFFFF7FEBFFFF7FEBFFFF7FEBF63
:1031A000FFF7FEBFFFF7FEBFFFF7FEBFFFF7FEBF53
:1031B000FFF7FEBFFFF7FEBFFFF7FEBFFFF7FEBF43
:1031C000FFF7FEBFFFF7FEBFFFF7FEBFFFF7FEBF33
:1031D000FFF7FEBFFFF7FEBFFFF7FEBFFFF7FEBF23
:1031E000FFF7FEBFFFF7FEBFFFF7FEBFFFF7FEBF13
:1031F000FFF7FEBFFFF7FEBF0001F9000010FC0063
:1032000022A24A0402040101A8090020F8090020B2
:10321000A8090020A8090020A80900204D000020CE
:1032200034000020C400F8FFDC00FAFF8100D10068
:04000005080030F5CA
:00000001FF
